{
  "contractName": "Dogs",
  "abi": [
    {
      "inputs": [],
      "stateMutability": "nonpayable",
      "type": "constructor"
    },
    {
      "inputs": [
        {
          "internalType": "uint256",
          "name": "",
          "type": "uint256"
        }
      ],
      "name": "dogs",
      "outputs": [
        {
          "internalType": "uint256",
          "name": "id",
          "type": "uint256"
        },
        {
          "internalType": "string",
          "name": "name",
          "type": "string"
        }
      ],
      "stateMutability": "view",
      "type": "function"
    },
    {
      "inputs": [],
      "name": "dogsCount",
      "outputs": [
        {
          "internalType": "uint256",
          "name": "",
          "type": "uint256"
        }
      ],
      "stateMutability": "view",
      "type": "function"
    }
  ],
  "bytecode": "0x608060405234801561000f575f80fd5b506100546040518060400160405280600581526020017f706f63686900000000000000000000000000000000000000000000000000000081525061005960201b60201c565b61043a565b60015f81548092919061006b906100f3565b919050555060405180604001604052806001548152602001828152505f8060015481526020019081526020015f205f820151815f015560208201518160010190816100b6919061036b565b5090505050565b7f4e487b71000000000000000000000000000000000000000000000000000000005f52601160045260245ffd5b5f819050919050565b5f6100fd826100ea565b91507fffffffffffffffffffffffffffffffffffffffffffffffffffffffffffffffff820361012f5761012e6100bd565b5b600182019050919050565b5f81519050919050565b7f4e487b71000000000000000000000000000000000000000000000000000000005f52604160045260245ffd5b7f4e487b71000000000000000000000000000000000000000000000000000000005f52602260045260245ffd5b5f60028204905060018216806101b557607f821691505b6020821081036101c8576101c7610171565b5b50919050565b5f819050815f5260205f209050919050565b5f6020601f8301049050919050565b5f82821b905092915050565b5f6008830261022a7fffffffffffffffffffffffffffffffffffffffffffffffffffffffffffffffff826101ef565b61023486836101ef565b95508019841693508086168417925050509392505050565b5f819050919050565b5f61026f61026a610265846100ea565b61024c565b6100ea565b9050919050565b5f819050919050565b61028883610255565b61029c61029482610276565b8484546101fb565b825550505050565b5f90565b6102b06102a4565b6102bb81848461027f565b505050565b5b818110156102de576102d35f826102a8565b6001810190506102c1565b5050565b601f821115610323576102f4816101ce565b6102fd846101e0565b8101602085101561030c578190505b610320610318856101e0565b8301826102c0565b50505b505050565b5f82821c905092915050565b5f6103435f1984600802610328565b1980831691505092915050565b5f61035b8383610334565b9150826002028217905092915050565b6103748261013a565b67ffffffffffffffff81111561038d5761038c610144565b5b610397825461019e565b6103a28282856102e2565b5f60209050601f8311600181146103d3575f84156103c1578287015190505b6103cb8582610350565b865550610432565b601f1984166103e1866101ce565b5f5b82811015610408578489015182556001820191506020850194506020810190506103e3565b868310156104255784890151610421601f891682610334565b8355505b6001600288020188555050505b505050505050565b610307806104475f395ff3fe608060405234801561000f575f80fd5b5060043610610034575f3560e01c80633827235614610038578063c7e109f314610069575b5f80fd5b610052600480360381019061004d9190610169565b610087565b60405161006092919061022d565b60405180910390f35b61007161012c565b60405161007e919061025b565b60405180910390f35b5f602052805f5260405f205f91509050805f0154908060010180546100ab906102a1565b80601f01602080910402602001604051908101604052809291908181526020018280546100d7906102a1565b80156101225780601f106100f957610100808354040283529160200191610122565b820191905f5260205f20905b81548152906001019060200180831161010557829003601f168201915b5050505050905082565b60015481565b5f80fd5b5f819050919050565b61014881610136565b8114610152575f80fd5b50565b5f813590506101638161013f565b92915050565b5f6020828403121561017e5761017d610132565b5b5f61018b84828501610155565b91505092915050565b61019d81610136565b82525050565b5f81519050919050565b5f82825260208201905092915050565b5f5b838110156101da5780820151818401526020810190506101bf565b5f8484015250505050565b5f601f19601f8301169050919050565b5f6101ff826101a3565b61020981856101ad565b93506102198185602086016101bd565b610222816101e5565b840191505092915050565b5f6040820190506102405f830185610194565b818103602083015261025281846101f5565b90509392505050565b5f60208201905061026e5f830184610194565b92915050565b7f4e487b71000000000000000000000000000000000000000000000000000000005f52602260045260245ffd5b5f60028204905060018216806102b857607f821691505b6020821081036102cb576102ca610274565b5b5091905056fea2646970667358221220359cdfabdb565c74a430c41514a6379c477e857078775b430cc1663cfc9a235464736f6c63430008150033",
  "immutableReferences": {},
  "source": "// Dogs.sol\npragma solidity ^0.8.21;\n\ncontract Dogs {\n  // \n  struct Dog {\n    uint id;\n    string name;\n  }\n\n  // mappinguintidDog\n  mapping(uint => Dog) public dogs; // Dog\n  uint public dogsCount; // id+1\n\n  constructor() public { // \n    createProgress(\"pochi\");\n  }\n\n  function createProgress(string memory _name) private {\n    dogsCount++;\n    dogs[dogsCount] = Dog(dogsCount, _name);\n  }\n}",
  "sourcePath": "/Users/iniad/Documents/graduate/tutorial/contracts/Dogs.sol",
  "compiler": {
    "name": "solc",
    "version": "0.8.21+commit.d9974bed.Emscripten.clang"
  },
  "schemaVersion": "3.4.16",
  "updatedAt": "2024-05-06T08:41:43.920Z",
  "devdoc": {
    "kind": "dev",
    "methods": {},
    "version": 1
  },
  "userdoc": {
    "kind": "user",
    "methods": {},
    "version": 1
  }
}